:020000040000FA
:100000000C9463000C948B000C948B000C945303A1
:100010000C9453030C9453030C948B000C948B009E
:100020000C948B000C948B000C948B000C948B0024
:100030000C948B000C948B000C948B000C948B0014
:100040000C9409030C948B000C948B000C948B0083
:100050000C948B000C948B000C948B000C948B00F4
:100060000C948B000C948B000000000023002600F1
:10007000290000000000240027002A0000000000E2
:10008000250028002B0004040404040404040202D4
:100090000202020203030303030301020408102007
:1000A0004080010204081020010204081020000012
:1000B0000008000201000003040700000000000027
:1000C00000005605450611241FBECFEFD8E0DEBF65
:1000D000CDBF21E0A2E1B1E001C01D92AF39B2076E
:1000E000E1F711E0A0E0B1E0EAE5FDE002C0059033
:1000F0000D92A231B107D9F710E0C2E6D0E004C0FA
:100100002197FE010E949A06C136D107C9F70E94C5
:1001100017040C94A0060C9400003FB7F89480914B
:10012000780190917901A0917A01B0917B0126B577
:10013000A89B05C02F3F19F00196A11DB11D3FBF1F
:10014000BA2FA92F982F8827BC01CD01620F711DEE
:10015000811D911D42E0660F771F881F991F4A95E8
:10016000D1F70895AF92BF92CF92DF92EF92FF92B4
:100170000F931F93CF93DF936C017B018B01040FCF
:10018000151FEB015E01AE18BF08C017D10759F06B
:100190006991D601ED91FC910190F081E02DC601AD
:1001A0000995892B79F7C501DF91CF911F910F91A7
:1001B000FF90EF90DF90CF90BF90AF900895209187
:1001C0007E0130917F012817390771F490917C01ED
:1001D00080917D01981741F0E0917C01F0E0EC5DA9
:1001E000FE4F808190E008958FEF9FEF089508956E
:1001F000EF92FF920F931F93CF93DF93DC015C96F6
:10020000ED90FC905D97E114F10479F481E090E0C9
:1002100013969C938E93129790E080E0DF91CF919C
:100220001F910F91FF90EF9008955196ED91FC91E1
:10023000529750968C915097982F90950FB75E9645
:100240002C915E97122F127021FD6095F8942081F9
:10025000112319F1282B2083E7012197F1F728E0DA
:10026000462F50E0308160FF1AC0382B3083E70101
:100270002197F1F7BA0175956795215089F71123F8
:1002800081F08081892380830FBF5C968D919C9142
:100290000197F1F781E090E0C1CF2923DCCF39232A
:1002A000E5CF9081892BEFCF20917E0130917F01A6
:1002B0002817390761F480917D0120917C0190E03D
:1002C000805C9F4F821B91098F739927089590E05E
:1002D00080E0089520917E0130917F012817390731
:1002E000B9F490917C0180917D01981789F0E0919B
:1002F0007C01F0E0EC5DFE4F808120917C0130E0DC
:100300002F5F3F4F2F73332720937C0190E0089598
:100310008FEF9FEF0895E0917E01F0917F01E81744
:10032000F90769F4A389B4899C918589809589230B
:100330008C9310927F0110927E0181E0089580E0FD
:1003400008959B01AC0110929B0110929A011092AA
:10035000990110929801109297011092960160E015
:1003600079E08DE390E00E945906B901C901039735
:100370002430310510F481E090E090939D0180934A
:100380009C0190918C01963108F05FC0F901F695BF
:10039000E795E431F10508F483C07397F093970172
:1003A000E09396016630710508F47DC0B90165508F
:1003B00071097093990160939801B901660F771FD5
:1003C000260F371F36952795369527952D30310501
:1003D00008F46CC02C50310930939B0120939A0192
:1003E0002091680084E0983048F031E09E3008F4B5
:1003F00030E081E001C0880F3A95EAF7822B8093C4
:1004000068002DE630E0983050F02BE630E09E306A
:1004100030F02CE630E0963110F030E020E0309300
:10042000940120939301292F30E0983008F041C0C7
:1004300081E001C0880F9A95EAF780939501809139
:100440009C0190919D010197F1F780919A01909103
:100450009B01892B21F180917E0190917F0121E008
:1004600080389207E1F0009711F00E948B01809193
:100470009E018E7F80939E0110927D0110927C01DF
:1004800080E891E090937F0180937E01E091930159
:10049000F0919401808190919501892B808308953A
:1004A000E1E0F0E07BCF61E070E083CF21E030E07D
:1004B00093CF9E3040F42850310981E001C0880F6D
:1004C0002A95EAF7BACF2E503109F7CF90E080E0B5
:1004D0000895CF92DF92EF92FF926B017C010E9410
:1004E000A101C701B601FF90EF90DF90CF90089572
:1004F0000895EF92FF920F931F93CF93DF93EB0139
:10050000209709F441C07C0110E000E02FB7F89477
:100510008091740190917501A0917601B09177015D
:100520002FBF8093880190938901A0938A01B09393
:100530008B0180E891E00E946A0197FF2DC02FB7E0
:10054000F8948091740190917501A0917601B09119
:1005500077012FBF409188015091890160918A01F4
:1005600070918B01841B950BA60BB70B40918401F6
:1005700050918501609186017091870184179507DC
:10058000A607B707B0F2E801CE01DF91CF911F9126
:100590000F91FF90EF900895F70181937F010F5F16
:1005A0001F4F0C171D0708F4B1CFEDCFAB01BC01F5
:1005B00080E891E00C94B200682F80E891E00C9400
:1005C000F80080E891E00E945401892B29F080E82E
:1005D00091E00E946A01F5CF0895609384017093C1
:1005E000850180938601909387010895CF92DF92D1
:1005F000EF92FF926B017C010E94A101C701B6013D
:10060000FF90EF90DF90CF90089580E891E00C94F8
:100610008B011F920F920FB60F9211242F933F93CD
:100620008F939F93AF93BF938091740190917501C5
:10063000A0917601B09177013091730123E0230FEF
:100640002D3758F50196A11DB11D2093730180939C
:10065000740190937501A0937601B0937701809116
:10066000780190917901A0917A01B0917B01019676
:10067000A11DB11D8093780190937901A0937A0117
:10068000B0937B01BF91AF919F918F913F912F913B
:100690000F900FBE0F901F90189526E8230F02961B
:1006A000A11DB11DD2CF1F920F920FB60F92112430
:1006B0002F933F934F935F936F937F938F939F936A
:1006C000AF93BF93EF93FF93E0917E01F0917F0191
:1006D000309749F0A685B7858585968D91FF14C022
:1006E0009C918923A1F4FF91EF91BF91AF919F91CC
:1006F0008F917F916F915F914F913F912F910F90CB
:100700000FBE0F901F9018959C91892361F7A389C4
:10071000B4899C918589809589238C938689978952
:100720000197F1F7608D718DA685B785558538E005
:1007300020E0CB010197F1F7822F90E09595879506
:10074000282F4C91452309F02068315091F7868D70
:1007500081FD209580917D0190E001968F7399270E
:1007600030917C01381799F0A0917D01B0E0AC5D2B
:10077000BE4F2C9380937D01828D938D0197F1F76D
:10078000A389B4898C919589892B8C93ACCF868D64
:100790008160868FF1CF90E0FC01E255FF4F2491FC
:1007A000FC01E656FF4F3491FC01EA57FF4FE491FC
:1007B000EE23C9F0222339F0233001F1A8F42130CF
:1007C00019F1223029F1F0E0EE0FFF1FE458FF4F3E
:1007D000A591B4918FB7F894EC91611126C0309532
:1007E0003E233C938FBF08952730A9F02830C9F0ED
:1007F000243049F7809180008F7D03C08091800074
:100800008F7780938000DFCF84B58F7784BDDBCF77
:1008100084B58F7DFBCF8091B0008F778093B0003F
:10082000D2CF8091B0008F7DF9CF3E2BDACFCF931E
:10083000DF93CDB7DEB72D970FB6F894DEBF0FBEAE
:10084000CDBF789484B5826084BD84B5816084BD59
:1008500085B5826085BD85B5816085BD80916E005E
:10086000816080936E00109281008091810082608F
:1008700080938100809181008160809381008091CC
:1008800080008160809380008091B10084608093BB
:10089000B1008091B00081608093B00080917A00B7
:1008A000846080937A0080917A00826080937A00DD
:1008B00080917A00816080937A0080917A008068CC
:1008C00080937A001092C10087E39FEDA0E0B0E032
:1008D00080936A0190936B01A0936C01B0936D01BA
:1008E000E0916801F09169010190F081E02D67E3EA
:1008F0007FED80E090E00995E0916801F091690159
:100900000680F781E02D62E370E080E090E00995D9
:1009100060936E0170936F018093700190937101E9
:10092000DD24DA9493E0392ECC24C39424E0222EE3
:1009300000E010E0809172018D87E0916401F091F8
:100940006501309709F00995D982DA823D82CB8220
:100950002C8229E12E831C86E0916801F0916901C7
:100960000084F185E02D09958C859B81890F9C8100
:10097000890F9D81890F9E81890F9D85890F8095A3
:100980008C87E0916801F09169010484F585E02D80
:1009900066E070E0CE0101960995E0916801F09162
:1009A00069010484F585E02D61E070E0CE010D96CB
:1009B0000995E0916801F09169010484F585E02DC5
:1009C00061E070E0CE010C960995E0916801F0912C
:1009D0006901309799F10684F785E02D65E070E0B4
:1009E000CE0107960995059749F58F81988501965F
:1009F00029F589858E3F10F58A858230F8F082507E
:100A00008730E0F4E82EF12CE0916801F091690163
:100A10000684F785E02DB701CE0101960995E81609
:100A2000F90661F4E0916801F09169010684F785A7
:100A3000E02D61E070E0CE0107960995E091660136
:100A4000F0916701309709F00995809172018C252A
:100A5000809372010E948D004B015C0184EF482E4F
:100A600055245394612C712C0E948D0068197909CA
:100A70008A099B09683E734081059105A8F381E0CE
:100A8000481A51086108710828EE820E23E0921E70
:100A9000A11CB11C411451046104710429F7011512
:100AA000110509F447CF0E94000044CF0F931F9314
:100AB000CF93DF93109283011092820188EE93E02E
:100AC000A0E0B0E08093840190938501A09386011B
:100AD000B093870184E091E090938101809380013D
:100AE000109297011092960110929901109298011C
:100AF00010929B0110929A0110929D0110929C01FC
:100B000060919E016E7F6D7F60939E01669561701E
:100B100081E0682789E00E94CB0343EA50E0FA01B4
:100B200064918FE890E0FC012491222399F030E059
:100B3000220F331FF901EE58FF4FA591B491F9012F
:100B4000E458FF4F259134912FB7F8943C91632BD3
:100B50006C932FBFFA01449140939001FC01849162
:100B6000E82FF0E0EE0FFF1FE458FF4F85919491BE
:100B7000909392018093910102EA10E0F801249190
:100B8000CEE8D0E0FE0184918823C9F090E0880F80
:100B9000991FFC01EE58FF4FA591B491FC01E45858
:100BA000FF4F459154913FB7F8949C91822F8095C7
:100BB00098239C93FA019081892380833FBF809181
:100BC0009E0181FD04C061E088E00E94CB0388E0C3
:100BD00080938C01F801049100938D01FE01C49172
:100BE000EC2FF0E0EE0FFF1FE859FF4F8591949135
:100BF00090938F0180938E0189E692E09093130188
:100C00008093120185E093E0909315018093140185
:100C100086EF92E090931701809316018DEE92E09B
:100C2000909319018093180181EE92E090931B013B
:100C300080931A018CED92E090931D0180931C012A
:100C400086ED92E090931F0180931E0189E792E068
:100C5000909321018093200188E792E090932301F3
:100C60008093220110926501109264011092670135
:100C70001092660182E191E090936901809368018E
:100C8000DF91CF911F910F910895E0916801F0914C
:100C90006901309721F00280F381E02D099584E00D
:100CA00091E0909381018093800180E891E00C9421
:100CB0008B01052E97FB1EF400940E94700657FDD1
:100CC00007D00E94780607FC03D04EF40C947006FF
:100CD00050954095309521953F4F4F4F5F4F089568
:100CE00090958095709561957F4F8F4F9F4F089598
:100CF000A1E21A2EAA1BBB1BFD010DC0AA1FBB1F20
:100D0000EE1FFF1FA217B307E407F50720F0A21B91
:100D1000B30BE40BF50B661F771F881F991F1A94FE
:100D200069F760957095809590959B01AC01BD0128
:100D3000CF010895EE0FFF1F0590F491E02D099467
:100D400010E0C2E6D0E004C0FE010E949A0621969F
:100D5000C336D107C9F7F894FFCF00000000F800B0
:0C0D6000B2006602F70054016A01DF00D7
:107E0000112484B714BE81FFF0D085E080938100F7
:107E100082E08093C00088E18093C10086E0809377
:107E2000C20080E18093C4008EE0C9D0259A86E02C
:107E300020E33CEF91E0309385002093840096BBD3
:107E4000B09BFECF1D9AA8958150A9F7CC24DD24C4
:107E500088248394B5E0AB2EA1E19A2EF3E0BF2EE7
:107E6000A2D0813461F49FD0082FAFD0023811F036
:107E7000013811F484E001C083E08DD089C08234E0
:107E800011F484E103C0853419F485E0A6D080C0E4
:107E9000853579F488D0E82EFF2485D0082F10E0AE
:107EA000102F00270E291F29000F111F8ED06801E7
:107EB0006FC0863521F484E090D080E0DECF843638
:107EC00009F040C070D06FD0082F6DD080E0C81688
:107ED00080E7D80618F4F601B7BEE895C0E0D1E017
:107EE00062D089930C17E1F7F0E0CF16F0E7DF06D8
:107EF00018F0F601B7BEE89568D007B600FCFDCFD4
:107F0000A601A0E0B1E02C9130E011968C91119780
:107F100090E0982F8827822B932B1296FA010C0160
:107F200087BEE89511244E5F5F4FF1E0A038BF0790
:107F300051F7F601A7BEE89507B600FCFDCF97BE46
:107F4000E89526C08437B1F42ED02DD0F82E2BD052
:107F50003CD0F601EF2C8F010F5F1F4F84911BD097
:107F6000EA94F801C1F70894C11CD11CFA94CF0C13
:107F7000D11C0EC0853739F428D08EE10CD085E9AC
:107F80000AD08FE07ACF813511F488E018D01DD067
:107F900080E101D065CF982F8091C00085FFFCCF94
:107FA0009093C60008958091C00087FFFCCF809118
:107FB000C00084FD01C0A8958091C6000895E0E648
:107FC000F0E098E1908380830895EDDF803219F02E
:107FD00088E0F5DFFFCF84E1DECF1F93182FE3DFCA
:107FE0001150E9F7F2DF1F91089580E0E8DFEE27F6
:047FF000FF270994CA
:027FFE00040479
:00000001FF
