:100000000C94C3040C94EB040C94EB040C943A0B86
:100010000C943A0B0C943A0B0C94EB040C94EB04F8
:100020000C94EB040C94EB040C94EB040C94EB0494
:100030000C94EB040C94EB040C94EB040C94EB0484
:100040000C94980A0C94EB040C94080B0C94E20AA0
:100050000C94EB040C94EB040C94EB040C94EB0464
:100060000C94EB040C94EB0400004E4F4E45000042
:100070000000000000000000000000000000000080
:1000800000000000FFFF554E4B4E4F574E00000042
:100090000000000000000000000000000000000060
:1000A000710044582D313133000000000000000081
:1000B00000000100FF03000000000000740044582D
:1000C0002D3131360000000000000000000001006A
:1000D000FF03000000000000750044582D31313747
:1000E000000000000000000000000100FF0300000D
:1000F000000000002C0041582D3132570000000054
:100100000000000000000200FF03000000000000EB
:100110000C0041582D3132000000000000000000AA
:1001200000000200FF030000000000001200415820
:100130002D31380000000000000000000000020027
:10014000FF030000000000000A0052582D3130006B
:10015000000000000000000000000300FF0300009A
:1001600000000000180052582D32344600000000F4
:100170000000000000000300FF030000000000007A
:100180001C0052582D323800000000000000000012
:1001900000000300FF030000000000004000525870
:1001A0002D363400000000000000000000000300B5
:1001B000FF030000000000006B0045582D31303671
:1001C0002B0000000000000000000400FF0F0000F2
:1001D0000000000068004D582D313257000000002B
:1001E0000000000000000500FF0F000000000000FC
:1001F0001D004D582D3238000000000000000000A6
:1002000000000500FF0F00000000000036014D58FF
:100210002D36340000000000000000000000050042
:10022000FF0F00000000000040014D582D31303616
:10023000000000000000000000000500FF0F0000AB
:10024000000000001E004D582D323828322E302973
:100250000000000000000900FF0F00000000000087
:1002600037014D582D363428322E30290000000039
:1002700000000900FF0F00000000000041014D5880
:100280002D31303628322E302900000000000900C0
:10029000FF0F0000000000005E01584C2D3332308B
:1002A000000000000000000000000600FF03000046
:1002B00000000000A604584C3333302D4D30373742
:1002C0000000000000000900FF0F00000000000017
:1002D000B004584C3333302D4D3238380000000014
:1002E00000000900FF0F000000000000CE0458438A
:1002F0003333302D4D31383100000000000009004B
:10030000FF0F000000000000D80458433333302DA5
:100310004D3238380000000000000900FF0F0000D7
:1003200000000000BA0458433333302D54313831C3
:100330000000000000000900FF0F000000000000A6
:10034000C40458433333302D543238380000000091
:1003500000000900FF0F0000000000002404584CBA
:100360003433302D573235300000000000000900D2
:10037000FF0F000000000000420432584C343330BC
:100380002D5732353000000000000900FF0F00003B
:100390000000000088043258433433302D57323582
:1003A0003000000000000900FF0F00000000000006
:1003B0002E0458433433302D5731353000000000BF
:1003C00000000900FF0F000000000000380458433F
:1003D0003433302D57323430000000000000090063
:1003E000FF0F0000000000000604584D3433302D8C
:1003F000573231300000000000000900FF0F0000FC
:1004000000000000F20358483433302D57323130A9
:100410000000000000000900FF0F000000000000C5
:10042000F30358443433302D54323130000000008F
:1004300000000900FF0F0000000000001A045848E7
:100440003433302D563231300000000000000900F6
:10045000FF0F000000000000FC03584D3433302D26
:10046000573335300000000000000900FF0F000086
:1004700000000000E80358483433302D573335303E
:100480000000000000000900FF0F00000000000055
:10049000E90358443433302D543335300000000024
:1004A00000000900FF0F0000000000001004584881
:1004B0003433302D56333530000000000000090081
:1004C000FF0F000000000000000558573433302DA6
:1004D000543230300000000000000900FF0F00001F
:1004E00000000000F60458573433302D54333333B2
:1004F0000000000000000900FF0F000000000000E5
:100500006A04584D3534302D573135300000000025
:1005100000000900FF0F00000000000056045848CA
:100520003534302D5731353000000000000009000F
:10053000FF0F000000000000570458443534302DF0
:10054000543135300000000000000900FF0F0000AA
:10055000000000007E0458483534302D56313530C7
:100560000000000000000900FF0F00000000000074
:100570006004584D3534302D5732373000000000BC
:1005800000000900FF0F0000000000004C04584864
:100590003534302D5732373000000000000009009C
:1005A000FF0F0000000000004D0458443534302D8A
:1005B000543237300000000000000900FF0F000037
:1005C00000000000740458483534302D563237305E
:1005D0000000000000000900FF0F00000000000004
:1005E0009C0458573534302D54313430000000000D
:1005F00000000900FF0F000000000000920458579F
:100600003534302D5432363000000000000009002F
:10061000FF0F00000000000000894C34322D313003
:100620002D533330302D5200000007000008000029
:1006300001F8FFFF28944C35342D33302D533430DE
:10064000302D52000000070045330200BBCCFDFFF7
:1006500008944C35342D33302D533530302D520025
:1006600000000700D4C102002C3EFDFF20954C3550
:10067000342D35302D533239302D52000000070013
:10068000A69501005A6AFEFF08954C35342D353089
:100690002D533530302D520000000700D4C1020028
:1006A0002C3EFDFF18A94D34322D31302D533236FA
:1006B000302D52000000070009020200F7FDFDFF87
:1006C00010B44D35342D34302D533235302D520089
:1006D000000007000CEB0100F414FEFF10B54D35CF
:1006E000342D36302D533235302D520000000700A6
:1006F0000CEB0100F414FEFF00C84834322D3230F8
:100700002D533330302D52000000070043510200BA
:10071000BDAEFDFF08D24835342D3130302D533574
:1007200030302D520000070051D40300AF2BFCFFE6
:1007300008D34835342D3230302D533530302D52DA
:100740000000070051D40300AF2BFCFF19A94D3462
:10075000322D31302D533236302D524100000800F9
:1007600013030400EDFCFBFF11B44D35342D343080
:100770002D533235302D52410000080025D503009D
:10078000DB2AFCFF11B54D35342D36302D53323573
:10079000302D52410000080025D50300DB2AFCFF64
:1007A00001C84834322D32302D533330302D524170
:1007B000000008005EA10400A25EFBFF09D24835DC
:1007C000342D3130302D533530302D52410008005A
:1007D000B9A607004759F8FF09D34835342D323000
:1007E000302D533530302D5241000800B9A6070096
:1007F0004759F8FF3408504D34322D3031302D53E5
:100800003236302D5200080013030400EDFCFBFFCC
:100810003E08504D35342D3034302D533235302D87
:100820005200080025D50300DB2AFCFF4808504D84
:1008300035342D3036302D533235302D52000800EE
:1008400025D50300DB2AFCFFD007504834322D3079
:1008500032302D533330302D520008005EA1040099
:10086000A25EFBFFDA07504835342D3130302D536E
:100870003530302D52000800B9A607004759F8FF5F
:10088000E407504835342D3230302D533530302D7B
:1008900052000800B9A607004759F8FF01001800E8
:1008A00019001E0020002400260002001800190074
:1008B0001E002000240026000300180019001E005E
:1008C0002000240026000400180019001E0020004B
:1008D000240026000500180019001E002000240036
:1008E00026000500180019001E0020002400260024
:1008F0000600180019001E00200024002600070032
:1009000032023302540258026302670208000002F6
:100910000102340228024402400209004000410062
:1009200074006800840080000000000800020100DC
:1009300000030407000000000000000000000000A9
:1009400023002600290000000000240027002A00C0
:1009500000000000250028002B0004040404040407
:10096000040402020202020203030303030301025E
:10097000040810204080010204081020010204082D
:100980001020FE0B690F11241FBECFEFD8E0DEBF91
:10099000CDBF22E0ACE6B1E001C01D92A53CB2079C
:1009A000E1F711E0A0E0B1E0ECEDFFE102C005905D
:1009B0000D92AC36B107D9F714E0C2ECD4E004C014
:1009C0002197FE010E94DB0FC13CD107C9F70E94AD
:1009D0002B0D0C94E10F0C9400005F926F927F92AC
:1009E0008F929F92AF92BF92CF92DF92EF92FF923F
:1009F0000F931F93CF93DF9300D000D01F92CDB7FA
:100A0000DEB7E0918A02F0918B02309709F45AC068
:100A100069014A015B017C010684F785E02D65E0F0
:100A200070E0CE0101960995059709F061C08981B2
:100A30009A81019609F05CC07B808DEF871508F4E0
:100A400057C06C80E1E0E61508F052C0F4017082F6
:100A50005D80F80150828EEF882E860C912CA814B0
:100A6000B90408F445C0E0918A02F0918B02068433
:100A7000F785E02DB401C701099588169906C1F5DF
:100A8000172D160D150DF60191828082F701CF0109
:100A90008E199F09881599051CF48191180FF7CFBD
:100AA000E0918A02F0918B020684F785E02D61E0E7
:100AB00070E0CE01019609950197D1F4109581E07F
:100AC0009981191380E00F900F900F900F900F9065
:100AD000DF91CF911F910F91FF90EF90DF90CF901A
:100AE000BF90AF909F908F907F906F905F90089590
:100AF000F60111821082E6CFCF92DF92EF92FF9241
:100B00000F931F93CF93DF93CDB7DEB729970FB61F
:100B1000F894DEBF0FBECDBF182F6B017A01E091B4
:100B20008602F0918702309709F009951E83EF82C3
:100B30001986E0918A02F0918B02309711F410E04F
:100B40006AC018868FEF89838A8381E08B8384E073
:100B50008C8382E08D830084F185E02D0995888562
:100B60009B81890F9C81890F9D81890F8887E091E6
:100B70008A02F0918B020484F585E02D65E070E037
:100B8000CE010196099588859E81890F9F81890FE5
:100B90008887E0918A02F0918B020484F585E02D2C
:100BA00062E070E0CE010696099588858095888779
:100BB000E0918A02F0918B020484F585E02D61E0DA
:100BC00070E0CE0108960995E0918A02F0918B02BF
:100BD0000088F189E02D09958E01075F1F4F9E0166
:100BE0002F5F3F4FAE01485F5F4FB701C6010E94C4
:100BF000ED04182F882379F089819A81E816F90687
:100C000009F09DCF8885813009F099CF89858A7553
:100C100011E009F094CFE0918802F09189023097B9
:100C200009F00995812F29960FB6F894DEBF0FBE03
:100C3000CDBFDF91CF911F910F91FF90EF90DF908B
:100C4000CF900895CF92DF92EF92FF920F931F9370
:100C5000CF93DF93CDB7DEB72B970FB6F894DEBFF7
:100C60000FBECDBFF82E8B01D42EC52EE09186028B
:100C7000F0918702309709F009958FEF89838A8375
:100C800083E08D8381E08B8383E08D0D8C83FE82F6
:100C90001B861986E0918A02F0918B020084F1850F
:100CA000E02D09958B819B85890F9C81890F9D8102
:100CB000890F9E81890FF801ED2CFC2C9F01201BD0
:100CC000310B2E153F051CF49191890FF5CF8095BE
:100CD0008B87E0918A02F0918B020484F585E02DE8
:100CE00066E070E0CE0101960995E0918A02F091EC
:100CF0008B020484F585E02DB701C8010995E091C8
:100D00008A02F0918B020484F585E02D61E070E0A9
:100D1000CE010B9609958E01075F1F4F9E01295F3B
:100D20003F4FAE01465F5F4F66E070E0CE01019637
:100D30000E94ED04182F882361F08A85813041F4E8
:100D40008F819885892B21F489858A7511E009F0B6
:100D500010E0E0918802F0918902309709F009953E
:100D6000812F2B960FB6F894DEBF0FBECDBFDF915B
:100D7000CF911F910F91FF90EF90DF90CF9008954A
:100D80003FB7F8948091E1019091E201A091E301D5
:100D9000B091E40126B5A89B05C02F3F19F001963C
:100DA000A11DB11D3FBFBA2FA92F982F8827BC01C5
:100DB000CD01620F711D811D911D42E0660F771FED
:100DC000881F991F4A95D1F70895AF92BF92CF928D
:100DD000DF92EF92FF920F931F93CF93DF936C01FB
:100DE0007B018B01040F151FEB015E01AE18BF08DC
:100DF000C017D10759F06991D601ED91FC9101908E
:100E0000F081E02DC6010995892B79F7C501DF91A5
:100E1000CF911F910F91FF90EF90DF90CF90BF90F7
:100E2000AF900895FC01538D448D252F30E0842F21
:100E300090E0821B930B541710F0CF960895019702
:100E40000895FC01918D828D981761F0A28DAE0FEF
:100E5000BF2FB11D5D968C91928D9F5F9F73928F76
:100E600090E008958FEF9FEF0895FC01918D828DA2
:100E7000981731F0828DE80FF11D858D90E008956F
:100E80008FEF9FEF0895FC01918D228D892F90E0C7
:100E9000805C9F4F821B91098F739927089589EE7B
:100EA00091E00E94430721E0892B09F420E0822F82
:100EB000089580E090E0892B29F00E944F0781116E
:100EC0000C9400000895FC01A48DA80FB92FB11D4A
:100ED000A35ABF4F2C91848D90E001968F73992770
:100EE000848FA689B7892C93A089B1898C9183704E
:100EF00080648C93938D848D981306C00288F38947
:100F0000E02D80818F7D80830895EF92FF920F9373
:100F10001F93CF93DF93EC0181E0888F9B8D8C8DA5
:100F200098131AC0E889F989808185FF15C09FB799
:100F3000F894EE89FF896083E889F989808183705C
:100F4000806480839FBF81E090E0DF91CF911F910B
:100F50000F91FF90EF900895F62E0B8D10E00F5F2C
:100F60001F4F0F731127E02E8C8D8E110CC00FB602
:100F700007FCFACFE889F989808185FFF5CFCE019A
:100F80000E946307F1CFEB8DEC0FFD2FF11DE35AAB
:100F9000FF4FF0829FB7F8940B8FEA89FB8980811D
:100FA0008062CFCFCF93DF93EC01888D8823B9F097
:100FB000AA89BB89E889F9898C9185FD03C0808164
:100FC00086FD0DC00FB607FCF7CF8C9185FFF2CFE1
:100FD000808185FFEDCFCE010E946307E9CFDF91CD
:100FE000CF9108952091E7013091E8012817390742
:100FF00071F49091E5018091E601981741F0E0913C
:10100000E501F0E0E857FE4F808190E008958FEF12
:101010009FEF08950895EF92FF920F931F93CF9340
:10102000DF93DC015C96ED90FC905D97E114F10498
:1010300079F481E090E013969C938E93129790E060
:1010400080E0DF91CF911F910F91FF90EF90089575
:101050005196ED91FC91529750968C915097982F04
:1010600090950FB75E962C915E97122F127021FD0E
:101070006095F8942081112319F1282B2083E70132
:101080002197F1F728E0462F50E0308160FF1AC029
:10109000382B3083E7012197F1F7BA0175956795F1
:1010A000215089F7112381F08081892380830FBF2C
:1010B0005C968D919C910197F1F781E090E0C1CF12
:1010C0002923DCCF3923E5CF9081892BEFCF2091E5
:1010D000E7013091E8012817390761F48091E601B2
:1010E0002091E50190E0805C9F4F821B91098F73F6
:1010F0009927089590E080E008952091E7013091CC
:10110000E80128173907B9F49091E5018091E601CB
:10111000981789F0E091E501F0E0E857FE4F8081F3
:101120002091E50130E02F5F3F4F2F73332720934D
:10113000E50190E008958FEF9FEF0895E091E701BA
:10114000F091E801E817F90769F4A389B4899C9143
:101150008589809589238C931092E8011092E7018C
:1011600081E0089580E008959B01AC011092C102D6
:101170001092C0021092BF021092BE021092BD02E5
:101180001092BC0260E079E08DE390E00E94BC0F19
:10119000B901C90103972430310510F481E090E0D2
:1011A0009093C3028093C2029091B202963108F0EC
:1011B0005FC0F901F695E795E431F10508F483C0C5
:1011C0007397F093BD02E093BC026630710508F49A
:1011D0007DC0B901655071097093BF026093BE0272
:1011E000B901660F771F260F371F3695279536955D
:1011F00027952D30310508F46CC02C5031093093FF
:10120000C1022093C0022091680084E0983048F029
:1012100031E09E3008F430E081E001C0880F3A955B
:10122000EAF7822B809368002DE630E0983050F08A
:101230002BE630E09E3030F02CE630E0963110F0B6
:1012400030E020E03093BA022093B902292F30E039
:10125000983008F041C081E001C0880F9A95EAF704
:101260008093BB028091C2029091C3020197F1F773
:101270008091C0029091C102892B21F18091E701F8
:101280009091E80122E0863A9207E1F0009711F090
:101290000E949E088091C4028E7F8093C4021092A7
:1012A000E6011092E50186EA92E09093E8018093CE
:1012B000E701E091B902F091BA0280819091BB02FE
:1012C000892B80830895E1E0F0E07BCF61E070E05E
:1012D00083CF21E030E093CF9E3040F42850310995
:1012E00081E001C0880F2A95EAF7BACF2E50310964
:1012F000F7CFCF92DF92EF92FF926B017C010E94B9
:10130000B408C701B601FF90EF90DF90CF90089529
:1013100090E080E008950895EF92FF920F931F935D
:10132000CF93DF93EB01209709F441C07C0110E0DB
:1013300000E02FB7F8948091DD019091DE01A0913B
:10134000DF01B091E0012FBF8093AE029093AF0216
:10135000A093B002B093B10286EA92E00E947D08A9
:1013600097FF2DC02FB7F8948091DD019091DE0199
:10137000A091DF01B091E0012FBF4091AE025091EA
:10138000AF026091B0027091B102841B950BA60B65
:10139000B70B4091AA025091AB026091AC027091E0
:1013A000AD0284179507A607B707B0F2E801CE0192
:1013B000DF91CF911F910F91FF90EF900895F7016A
:1013C00081937F010F5F1F4F0C171D0708F4B1CFEA
:1013D000EDCFAB01BC0186EA92E00C94E506682FE4
:1013E00086EA92E00C940B0886EA92E00E94670875
:1013F000892B29F086EA92E00E947D08F5CF0895B6
:101400006093AA027093AB028093AC029093AD02FA
:101410000895CF92DF92EF92FF926B017C010E94C0
:10142000B408C701B601FF90EF90DF90CF90089508
:1014300086EA92E00C949E08FC0101900020E9F7F6
:101440003197AF01481B590BBC0189EE91E00C9418
:10145000E5068F929F92AF92BF920F931F93CF9307
:10146000DF93CDB7DEB7A1970FB6F894DEBF0FBEFE
:10147000CDBF19A2423008F44AE08E010F5D1F4F24
:10148000842E912CB12CA12CA50194010E949A0FBD
:10149000E62FB901CA01EA30F4F4E05DD801EE9319
:1014A0008D01232B242B252B79F790E080E01097DA
:1014B00019F0CD010E941C0AA1960FB6F894DEBF68
:1014C0000FBECDBFDF91CF911F910F91BF90AF9015
:1014D0009F908F900895E95CE1CF682F70E090E0D5
:1014E00080E04AE00C94290ACF93DF93EC014CE1B1
:1014F00050E068E670E08CE691E00E947D0F80EAA3
:1015000090E028E08C39920771F0BC01FC01259134
:1015100034914C962C173D07A1F74CE150E08CE636
:1015200091E00E947D0F8CE691E0DF91CF910895CC
:101530001F920F920FB60F9211242F933F938F9308
:101540009F93AF93BF938091DD019091DE01A091B5
:10155000DF01B091E0013091DC0123E0230F2D3752
:1015600058F50196A11DB11D2093DC018093DD018A
:101570009093DE01A093DF01B093E0018091E1013F
:101580009091E201A091E301B091E4010196A11DC7
:10159000B11D8093E1019093E201A093E301B09328
:1015A000E401BF91AF919F918F913F912F910F9047
:1015B0000FBE0F901F90189526E8230F0296A11DCD
:1015C000B11DD2CF1F920F920FB60F9211242F93FD
:1015D0003F934F935F936F937F938F939F93AF93BB
:1015E000BF93EF93FF9389EE91E00E946307FF9111
:1015F000EF91BF91AF919F918F917F916F915F918B
:101600004F913F912F910F900FBE0F901F90189503
:101610001F920F920FB60F9211242F938F939F93C7
:10162000EF93FF93E091F901F091FA018081E0914D
:10163000FF01F091000282FD1BC0908180910202A7
:101640008F5F8F7320910302821741F0E0910202B5
:10165000F0E0E751FE4F958F80930202FF91EF91EA
:101660009F918F912F910F900FBE0F901F90189503
:101670008081F4CF1F920F920FB60F9211242F93F7
:101680003F934F935F936F937F938F939F93AF930A
:10169000BF93EF93FF93E091E701F091E80130975A
:1016A00049F0A685B7858585968D91FF14C09C91DC
:1016B0008923A1F4FF91EF91BF91AF919F918F91F9
:1016C0007F916F915F914F913F912F910F900FBE3E
:1016D0000F901F9018959C91892361F7A389B48975
:1016E0009C918589809589238C9386899789019718
:1016F000F1F7608D718DA685B785558538E020E0BE
:10170000CB010197F1F7822F90E095958795282FCF
:101710004C91452309F02068315091F7868D81FD69
:1017200020958091E60190E001968F739927309182
:10173000E501381799F0A091E601B0E0A857BE4F37
:101740002C938093E601828D938D0197F1F7A38905
:10175000B4898C919589892B8C93ACCF868D8160CF
:10176000868FF1CF90E0FC01E85DF64F2491FC01FB
:10177000E259F64F3491FC01E65AF64FE491EE231C
:10178000C9F0222339F0233001F1A8F4213019F1F6
:10179000223029F1F0E0EE0FFF1FE05BF64FA5913C
:1017A000B4918FB7F894EC91611126C030953E2327
:1017B0003C938FBF08952730A9F02830C9F024301A
:1017C00049F7809180008F7D03C0809180008F77E2
:1017D00080938000DFCF84B58F7784BDDBCF84B565
:1017E0008F7DFBCF8091B0008F778093B000D2CFF8
:1017F0008091B0008F7DF9CF3E2BDACF0F931F93EE
:10180000CF93DF931092EC011092EB0188EE93E0FE
:10181000A0E0B0E08093ED019093EE01A093EF0182
:10182000B093F00120E131E03093EA012093E90127
:1018300025EC30E03093F6012093F50124EC30E004
:101840003093F8012093F70120EC30E03093FA0157
:101850002093F90121EC30E03093FC012093FB014F
:1018600022EC30E03093FE012093FD0126EC30E0C5
:10187000309300022093FF011092020210920302A3
:1018800010920402109205021092A9021092A8026E
:101890008093AA029093AB02A093AC02B093AD02E6
:1018A00082E291E09093A7028093A6021092BD027B
:1018B0001092BC021092BF021092BE021092C1029E
:1018C0001092C0021092C3021092C2026091C40230
:1018D0006E7F6D7F6093C4026695617081E06827BA
:1018E00089E00E94B20B47E759E0FA01649183E670
:1018F00099E0FC012491222399F030E0220F331F5C
:10190000F901EA5BF64FA591B491F901E05BF64F5E
:10191000259134912FB7F8943C91632B6C932FBF92
:10192000FA0144914093B602FC018491E82FF0E063
:10193000EE0FFF1FE05BF64F859194919093B802F4
:101940008093B70206E719E0F8012491C2E6D9E0D6
:10195000FE0184918823C9F090E0880F991FFC0153
:10196000EA5BF64FA591B491FC01E05BF64F45911F
:1019700054913FB7F8949C91822F809598239C9323
:10198000FA019081892380833FBF8091C40281FD49
:1019900004C061E088E00E94B20B88E08093B2024C
:1019A000F80104910093B302FE01C491EC2FF0E022
:1019B000EE0FFF1FE45CF64F859194919093B50272
:1019C0008093B40289E799E0909395028093940202
:1019D00088E19AE0909397028093960289E09AE0DA
:1019E000909399028093980280E09AE090939B02F2
:1019F00080939A0284EF99E090939D0280939C02D9
:101A00008FEE99E090939F0280939E0289EE99E079
:101A10009093A1028093A0028CE899E09093A30296
:101A20008093A2028BE899E09093A5028093A40290
:101A300010928702109286021092890210928802F8
:101A400084E992E090938B0280938A02DF91CF9198
:101A50001F910F910895CF93DF93CDB7DEB7A49771
:101A60000FB6F894DEBF0FBECDBF789484B5826008
:101A700084BD84B5816084BD85B5826085BD85B532
:101A8000816085BD80916E00816080936E001092B0
:101A9000810080918100826080938100809181002B
:101AA00081608093810080918000816080938000BC
:101AB0008091B10084608093B1008091B00081601A
:101AC0008093B00080917A00846080937A00809146
:101AD0007A00826080937A0080917A00816080939E
:101AE0007A0080917A00806880937A001092C10019
:101AF000E091F901F091FA0182E08083E091F50133
:101B0000F091F6011082E091F701F091F80180E187
:101B1000808310920102E091FD01F091FE0186E0C8
:101B20008083E091FB01F091FC01808180618083E2
:101B3000E091FB01F091FC01808188608083E0915D
:101B4000FB01F091FC01808180688083E091FB01C2
:101B5000F091FC0180818F7D808387E39FEDA0E081
:101B6000B0E080938C0290938D02A0938E02B0938C
:101B70008F02E0918A02F0918B020190F081E02DBA
:101B800067E37FED80E090E00995E0918A02F091B3
:101B90008B020680F781E02D62E370E080E090E048
:101BA00009956093900270939102809392029093B2
:101BB000930242E050E0BE01635F7F4F90E080E01F
:101BC0000E947C05882309F459C08D859E850E945A
:101BD000740A9093DB018093DA01029611F00E945F
:101BE0001C0A80E391E00E941C0AE091DA01F09166
:101BF000DB0182899389892B09F440C08D859E85FC
:101C00000E94740AFC0182899389ECE9F8E048E2B9
:101C100059E04E175F0761F0BF0124913E962817E7
:101C20001906B9F74EE050E088EC91E00E947D0F74
:101C300088EC91E09093D7018093D60144E050E086
:101C4000BE016F5F7F4F8AE190E00E947C05882390
:101C500009F4F7C083E391E00E941C0AE091DA01E5
:101C6000F091DB01828993898130910538F08430CD
:101C7000910508F4B9C0059709F4D3C0CE010196C7
:101C80009CA38BA334E0432E512C612C712C1E019C
:101C900091E2290E311C8CE0E0E0F1E0DE011D96BE
:101CA00001900D928A95E1F7EBA1FCA12CE0119235
:101CB0002A95E9F783E08B839AE09F83E0E8EB873E
:101CC0000091DA011091DB01F80184889588A688DB
:101CD000B788C501B40122E030E040E050E00E9446
:101CE000BC0F69013A8F298FC501B401A30192018C
:101CF0000E94BC0F50954095309521953F4F4F4F16
:101D00005F4F2C0D3D1D3C8F2B8FDE8ECD8EC50180
:101D1000B401A30192010E94BC0FC20ED31ED8A22F
:101D2000CF8EF801828993898130910538F0843013
:101D3000910508F48BC0059709F4B1C08E01075EC8
:101D40001F4FF801219131918F01E091D601F0915F
:101D5000D701868197813AA329A342E050E0B101DF
:101D60000E9422060E94C0064B015C0184EFC82E2F
:101D7000DD24D394E12CF12C0E94C0066819790966
:101D80008A099B09683E734081059105A8F3F1E03B
:101D9000CF1AD108E108F10828EE820E23E0921E46
:101DA000A11CB11CC114D104E104F10429F72016CF
:101DB000310639F68091D8019091D901019663E0FE
:101DC00070E00E94860F9093D9018093D80180E043
:101DD00090E0892B09F45FCF0E944F07882309F414
:101DE0005ACF0E94000057CF89810E946D0A82E479
:101DF00091E00E941C0A8A810E946D0A82E491E0AF
:101E00000E941C0A8B810E946D0A82E491E00E946C
:101E10001C0A8C810E946D0A80E391E00E941C0ADA
:101E20002DCF89810E946D0A82E491E00E941C0AF4
:101E30008A810E946D0A82E491E00E941C0A8B81D3
:101E4000E9CF84E491E00E941C0AE6CF6091D801BA
:101E50007091D901660F771F660F771F8DE090E0B4
:101E60008C0F9D1F680F791F44E050E08AE190E0DD
:101E70000E942206882309F461CF81E591E00E9447
:101E80001C0A6091D8017091D90190E080E04AE08D
:101E90000E94290A80E391E00E941C0A4FCF6091C2
:101EA000D8017091D901660F771F660F771FE1E0A7
:101EB000F0E0EC0FFD1F6E0F7F1F44E050E08AE161
:101EC00090E00E942206882309F438CF8FE591E044
:101ED000D6CFE0918A02F0918B02309721F00280F8
:101EE000F381E02D099582E291E09093A70280931F
:101EF000A60286EA92E00C949E08FB01DC0102C077
:101F000005900D9241505040D8F70895AA1BBB1B75
:101F100051E107C0AA1FBB1FA617B70710F0A61BE9
:101F2000B70B881F991F5A95A9F780959095BC010A
:101F3000CD010895A1E21A2EAA1BBB1BFD010DC005
:101F4000AA1FBB1FEE1FFF1FA217B307E407F50769
:101F500020F0A21BB30BE40BF50B661F771F881F45
:101F6000991F1A9469F760957095809590959B01DB
:101F7000AC01BD01CF010895052E97FB1EF400941E
:101F80000E94D30F57FD07D00E949A0F07FC03D081
:101F90004EF40C94D30F50954095309521953F4FBA
:101FA0004F4F5F4F089590958095709561957F4F45
:101FB0008F4F9F4F0895EE0FFF1F0590F491E02D76
:101FC000099414E0C2ECD4E004C0FE010E94DB0FCF
:0C1FD0002196C33CD107C9F7F894FFCF5D
:101FDC00010102020101202001014040000000002B
:101FEC008507E5061207D2074307210735070000CE
:101FFC0000000B08E50688090A0867087D08F20747
:10200C000D0A005375636365656420746F2052423A
:10201C003A002C004661696C656420746F20524252
:10202C0000436F6D70207061747465726E3A00506D
:0C203C004944207061747465726E3A00B3
:00000001FF
