:100000000C9463000C948B000C948B000C94F905F9
:100010000C94F9050C94F9050C948B000C948B004E
:100020000C948B000C948B000C948B000C948B0024
:100030000C948B000C948B000C948B000C948B0014
:100040000C9457050C948B000C94C7050C94A105D7
:100050000C948B000C948B000C948B000C948B00F4
:100060000C948B000C948B0000000008000201002F
:100070000003040700000000000000000000000072
:1000800023002600290000000000240027002A0089
:1000900000000000250028002B00040404040404D0
:1000A0000404020202020202030303030303010227
:1000B00004081020408001020408102001020408F6
:1000C0001020BD060D0A11241FBECFEFD8E0DEBF01
:1000D000CDBF22E0A4E5B1E001C01D92A53AB20770
:1000E000E1F711E0A0E0B1E0EAEEF4E102C0059032
:1000F0000D92A435B107D9F710E0C2E6D0E004C0F4
:100100002197FE010E94620AC136D107C9F70E94F9
:10011000EA070C94680A0C9400008F929F92AF92A9
:10012000BF92CF92DF92EF92FF920F931F93CF93E4
:10013000DF93CDB7DEB728970FB6F894DEBF0FBEBA
:10014000CDBF082F162F6A017901E0916602F09168
:100150006702309709F009951E83EF82E0916A02E9
:10016000F0916B02309711F410E0ADC00F3FE1F356
:1001700018868FEF89838A830B8384E08C8382E0E7
:100180008D830084F185E02D099588859B81890FF9
:100190009C81890F9D81890F8887E0916A02F09187
:1001A0006B020484F585E02D65E070E0CE010196D8
:1001B00009958E819885890F9F81890F8887E091A5
:1001C0006A02F0916B020484F585E02D62E070E034
:1001D000CE0106960995888580958887E0916A0208
:1001E000F0916B020484F585E02D61E070E0CE01B2
:1001F00008960995E0916A02F0916B020088F189F6
:10020000E02D0995E0916A02F0916B02309709F4B4
:10021000ABCF0684F785E02D65E070E0CE01019656
:100220000995059709F0A0CF89819A81019609F077
:100230009BCF8B808DEF881508F496CF1C811230F0
:1002400008F492CF9D808EEFA82EA10EB12CEA1457
:10025000FB0408F489CFE0916A02F0916B020684F6
:10026000F785E02DB501C6010995A816B90609F074
:100270007BCF180D190DF601CF018C199D098A1538
:100280009B051CF48191180FF7CFE0916A02F09161
:100290006B020684F785E02D61E070E0CE010196E7
:1002A0000995019709F060CF8981109518135CCFEB
:1002B000EA14FB0409F058CF081156CF892D8A752E
:1002C00011E009F051CFE0916802F0916902309796
:1002D00009F00995812F28960FB6F894DEBF0FBE5E
:1002E000CDBFDF91CF911F910F91FF90EF90DF90E5
:1002F000CF90BF90AF909F908F9008953FB7F894A4
:100300008091C1019091C201A091C301B091C4013B
:1003100026B5A89B05C02F3F19F00196A11DB11D60
:100320003FBFBA2FA92F982F8827BC01CD01620F9C
:10033000711D811D911D42E0660F771F881F991F57
:100340004A95D1F70895AF92BF92CF92DF92EF9284
:10035000FF920F931F93CF93DF936C017B018B016F
:10036000040F151FEB015E01AE18BF08C017D107BF
:1003700059F06991D601ED91FC910190F081E02D49
:10038000C6010995892B79F7C501DF91CF911F919E
:100390000F91FF90EF90DF90CF90BF90AF900895B6
:1003A000FC01538D448D252F30E0842F90E0821B7B
:1003B000930B541710F0CF96089501970895FC0100
:1003C000918D828D981761F0A28DAE0FBF2FB11D58
:1003D0005D968C91928D9F5F9F73928F90E00895B0
:1003E0008FEF9FEF0895FC01918D828D981731F06A
:1003F000828DE80FF11D858D90E008958FEF9FEFBE
:100400000895FC01918D228D892F90E0805C9F4F93
:10041000821B91098F739927089589EC91E00E94BE
:10042000010221E0892B09F420E0822F089580E069
:1004300090E0892B29F00E940D0281110C9400009C
:100440000895FC01A48DA80FB92FB11DA35ABF4F69
:100450002C91848D90E001968F739927848FA689C3
:10046000B7892C93A089B1898C91837080648C9317
:10047000938D848D981306C00288F389E02D8081C6
:100480008F7D80830895EF92FF920F931F93CF93F8
:10049000DF93EC0181E0888F9B8D8C8D98131AC0BF
:1004A000E889F989808185FF15C09FB7F894EE89A6
:1004B000FF896083E889F989808183708064808303
:1004C0009FBF81E090E0DF91CF911F910F91FF904E
:1004D000EF900895F62E0B8D10E00F5F1F4F0F73F6
:1004E0001127E02E8C8D8E110CC00FB607FCFACFB1
:1004F000E889F989808185FFF5CFCE010E9421022C
:10050000F1CFEB8DEC0FFD2FF11DE35AFF4FF08281
:100510009FB7F8940B8FEA89FB8980818062CFCFE7
:10052000CF93DF93EC01888D8823B9F0AA89BB892A
:10053000E889F9898C9185FD03C0808186FD0DC015
:100540000FB607FCF7CF8C9185FFF2CF808185FF36
:10055000EDCFCE010E942102E9CFDF91CF91089526
:100560002091C7013091C8012817390771F4909183
:10057000C5018091C601981741F0E091C501F0E0F6
:10058000EC5AFE4F808190E008958FEF9FEF089521
:100590000895EF92FF920F931F93CF93DF93DC01A7
:1005A0005C96ED90FC905D97E114F10479F481E0A4
:1005B00090E013969C938E93129790E080E0DF91E9
:1005C000CF911F910F91FF90EF9008955196ED916B
:1005D000FC91529750968C915097982F90950FB709
:1005E0005E962C915E97122F127021FD6095F89403
:1005F0002081112319F1282B2083E7012197F1F79E
:1006000028E0462F50E0308160FF1AC0382B30833D
:10061000E7012197F1F7BA0175956795215089F7A0
:10062000112381F08081892380830FBF5C968D9197
:100630009C910197F1F781E090E0C1CF2923DCCFB5
:100640003923E5CF9081892BEFCF2091C7013091DD
:10065000C8012817390761F48091C6012091C501AE
:1006600090E0805C9F4F821B91098F7399270895BA
:1006700090E080E008952091C7013091C8012817CB
:100680003907B9F49091C5018091C601981789F096
:10069000E091C501F0E0EC5AFE4F80812091C50148
:1006A00030E02F5F3F4F2F7333272093C50190E039
:1006B00008958FEF9FEF0895E091C701F091C80171
:1006C000E817F90769F4A389B4899C918589809515
:1006D00089238C931092C8011092C70181E008957C
:1006E00080E008959B01AC011092A1021092A0023B
:1006F00010929F0210929E0210929D0210929C02F4
:1007000060E079E08DE390E00E94430AB901C901FD
:1007100003972430310510F481E090E09093A30218
:100720008093A20290919202963108F05FC0F90185
:10073000F695E795E431F10508F483C07397F093DB
:100740009D02E0939C026630710508F47DC0B901FA
:100750006550710970939F0260939E02B901660F04
:10076000771F260F371F36952795369527952D30FD
:10077000310508F46CC02C5031093093A10220934C
:10078000A0022091680084E0983048F031E09E306B
:1007900008F430E081E001C0880F3A95EAF7822B37
:1007A000809368002DE630E0983050F02BE630E082
:1007B0009E3030F02CE630E0963110F030E020E052
:1007C00030939A0220939902292F30E0983008F054
:1007D00041C081E001C0880F9A95EAF780939B029F
:1007E0008091A2029091A3020197F1F78091A0025B
:1007F0009091A102892B21F18091C7019091C801AC
:1008000022E086389207E1F0009711F00E945C0325
:100810008091A4028E7F8093A4021092C601109250
:10082000C50186E892E09093C8018093C701E091EA
:100830009902F0919A02808190919B02892B80838A
:100840000895E1E0F0E07BCF61E070E083CF21E04C
:1008500030E093CF9E3040F42850310981E001C050
:10086000880F2A95EAF7BACF2E503109F7CFCF92E9
:10087000DF92EF92FF926B017C010E947203C7012D
:10088000B601FF90EF90DF90CF90089590E080E068
:1008900008950895EF92FF920F931F93CF93DF93E4
:1008A000EB01209709F441C07C0110E000E02FB774
:1008B000F8948091BD019091BE01A091BF01B091CB
:1008C000C0012FBF80938E0290938F02A09390025D
:1008D000B093910286E892E00E943B0397FF2DC0FF
:1008E0002FB7F8948091BD019091BE01A091BF01F6
:1008F000B091C0012FBF40918E0250918F02609144
:10090000900270919102841B950BA60BB70B40913E
:100910008A0250918B0260918C0270918D02841733
:100920009507A607B707B0F2E801CE01DF91CF9196
:100930001F910F91FF90EF900895F70181937F0130
:100940000F5F1F4F0C171D0708F4B1CFEDCFAB01A0
:10095000BC0186E892E00C94A301682F86E892E03F
:100960000C94C90286E892E00E942503892B29F0A5
:1009700086E892E00E943B03F5CF089560938A02D7
:1009800070938B0280938C0290938D020895CF9286
:10099000DF92EF92FF926B017C010E947203C7010C
:1009A000B601FF90EF90DF90CF90089586E892E037
:1009B0000C945C03FC0101900020E9F73197AF0132
:1009C000481B590BBC0189EC91E00C94A3018F9258
:1009D0009F92AF92BF920F931F93CF93DF93CDB7A8
:1009E000DEB7A1970FB6F894DEBF0FBECDBF19A238
:1009F000423008F44AE08E010F5D1F4F842E912C87
:100A0000B12CA12CA50194010E94210AE62FB90165
:100A1000CA01EA30F4F4E05DD801EE938D01232B96
:100A2000242B252B79F790E080E0109719F0CD0169
:100A30000E94DA04A1960FB6F894DEBF0FBECDBFB8
:100A4000DF91CF911F910F91BF90AF909F908F90AA
:100A50000895E95CE1CFCF92DF92EF92FF92CF93BE
:100A6000DF9397FF1BC06B017C016DE289EC91E085
:100A70000E944302EC0166277727CB016C197D09A0
:100A80008E099F094AE00E94E7048C0F9D1FDF91A9
:100A9000CF91FF90EF90DF90CF9008954AE0DF91E3
:100AA000CF91FF90EF90DF90CF900C94E7041F92CE
:100AB0000F920FB60F9211242F933F938F939F9312
:100AC000AF93BF938091BD019091BE01A091BF01F2
:100AD000B091C0013091BC0123E0230F2D3758F5B0
:100AE0000196A11DB11D2093BC018093BD0190937F
:100AF000BE01A093BF01B093C0018091C10190914C
:100B0000C201A091C301B091C4010196A11DB11D04
:100B10008093C1019093C201A093C301B093C4011B
:100B2000BF91AF919F918F913F912F910F900FBEE9
:100B30000F901F90189526E8230F0296A11DB11D56
:100B4000D2CF1F920F920FB60F9211242F933F9383
:100B50004F935F936F937F938F939F93AF93BF93C5
:100B6000EF93FF9389EC91E00E942102FF91EF91B6
:100B7000BF91AF919F918F917F916F915F914F91B5
:100B80003F912F910F900FBE0F901F9018951F92BD
:100B90000F920FB60F9211242F938F939F93EF9381
:100BA000FF93E091D901F091DA018081E091DF01BA
:100BB000F091E00182FD1BC090818091E2018F5F86
:100BC0008F732091E301821741F0E091E201F0E0A0
:100BD000E753FE4F958F8093E201FF91EF919F9134
:100BE0008F912F910F900FBE0F901F9018958081BD
:100BF000F4CF1F920F920FB60F9211242F933F93B1
:100C00004F935F936F937F938F939F93AF93BF9314
:100C1000EF93FF93E091C701F091C801309749F03D
:100C2000A685B7858585968D91FF14C09C918923F3
:100C3000A1F4FF91EF91BF91AF919F918F917F911F
:100C40006F915F914F913F912F910F900FBE0F9039
:100C50001F9018959C91892361F7A389B4899C9171
:100C60008589809589238C93868997890197F1F7E7
:100C7000608D718DA685B785558538E020E0CB0164
:100C80000197F1F7822F90E095958795282F4C9149
:100C9000452309F02068315091F7868D81FD20951C
:100CA0008091C60190E001968F7399273091C5011C
:100CB000381799F0A091C601B0E0AC5ABE4F2C9302
:100CC0008093C601828D938D0197F1F7A389B48932
:100CD0008C919589892B8C93ACCF868D8160868F82
:100CE000F1CF90E0FC01E859FF4F2491FC01E2555F
:100CF000FF4F3491FC01E656FF4FE491EE23C9F01B
:100D0000222339F0233001F1A8F4213019F12230E7
:100D100029F1F0E0EE0FFF1FE057FF4FA591B491CE
:100D20008FB7F894EC91611126C030953E233C9327
:100D30008FBF08952730A9F02830C9F0243049F733
:100D4000809180008F7D03C0809180008F77809399
:100D50008000DFCF84B58F7784BDDBCF84B58F7DF6
:100D6000FBCF8091B0008F778093B000D2CF80917D
:100D7000B0008F7DF9CF3E2BDACF0F931F93CF9327
:100D8000DF931092CC011092CB0188EE93E0A0E0AB
:100D9000B0E08093CD019093CE01A093CF01B093AA
:100DA000D00129E031E03093CA012093C90125EC3C
:100DB00030E03093D6012093D50124EC30E030931D
:100DC000D8012093D70120EC30E03093DA01209352
:100DD000D90121EC30E03093DC012093DB0122ECDF
:100DE00030E03093DE012093DD0126EC30E03093DB
:100DF000E0012093DF011092E2011092E3011092D2
:100E0000E4011092E5011092890210928802809309
:100E10008A0290938B02A0938C02B0938D028BE197
:100E200091E0909387028093860210929D02109227
:100E30009C0210929F0210929E021092A1021092A8
:100E4000A0021092A3021092A2026091A4026E7FEF
:100E50006D7F6093A4026695617081E0682789E0E8
:100E60000E94710647EB50E0FA01649183EA90E03A
:100E7000FC012491222399F030E0220F331FF90165
:100E8000EA57FF4FA591B491F901E057FF4F259123
:100E900034912FB7F8943C91632B6C932FBFFA01D8
:100EA000449140939602FC018491E82FF0E0EE0F0C
:100EB000FF1FE057FF4F8591949190939802809384
:100EC000970206EB10E0F8012491C2EAD0E0FE019F
:100ED00084918823C9F090E0880F991FFC01EA579C
:100EE000FF4FA591B491FC01E057FF4F45915491FC
:100EF0003FB7F8949C91822F809598239C93FA0198
:100F00009081892380833FBF8091A40281FD04C02A
:100F100061E088E00E94710688E080939202F80107
:100F2000049100939302FE01C491EC2FF0E0EE0FC8
:100F3000FF1FE458FF4F8591949190939502809301
:100F4000940287E394E0909375028093740286ED97
:100F500094E0909377028093760287EC94E09093EC
:100F60007902809378028EEB94E090937B028093D9
:100F70007A0282EB94E090937D0280937C028DEA6A
:100F800094E090937F0280937E0287EA94E09093AE
:100F90008102809380028AE494E09093830280939C
:100FA000820289E494E090938502809384021092F7
:100FB000670210926602109269021092680284E73A
:100FC00092E090936B0280936A02DF91CF911F9120
:100FD0000F910895CF93DF9300D000D000D01F92DF
:100FE000CDB7DEB7789484B5826084BD84B5816066
:100FF00084BD85B5826085BD85B5816085BD8091E4
:101000006E00816080936E0010928100809181005B
:101010008260809381008091810081608093810053
:10102000809180008160809380008091B100846015
:101030008093B1008091B00081608093B000809176
:101040007A00846080937A0080917A008260809335
:101050007A0080917A00816080937A0080917A0092
:10106000806880937A001092C100E091D901F091DC
:10107000DA0182E08083E091D501F091D6011082FF
:10108000E091D701F091D80180E180831092E101D5
:10109000E091DD01F091DE0186E08083E091DB01EB
:1010A000F091DC01808180618083E091DB01F0912F
:1010B000DC01808188608083E091DB01F091DC01BC
:1010C000808180688083E091DB01F091DC01808188
:1010D0008F7D808387E39FEDA0E0B0E080936C027A
:1010E00090936D02A0936E02B0936F02E0916A023A
:1010F000F0916B020190F081E02D67E37FED80E0DD
:1011000090E00995E0916A02F0916B020680F78108
:10111000E02D62E370E080E090E00995609370025A
:1011200070937102809372029093730272EBE72EB8
:1011300071E0F72EE8EAAE2EE1E0BE2E04E911E000
:10114000F0E0CF2EF1E0DF2EAAE08A2E912CF601FE
:1011500071906F0124E030E0A80166E070E0872D17
:101160000E948D00882309F479C022E030E0A701B5
:1011700064E270E0872D0E948D00882391F1672D35
:1011800070E090E080E04AE00E94E70489E291E0AC
:101190000E94DA04F80160817181072E000C880B2F
:1011A000990B0E942B0584E391E00E94DA04F80178
:1011B00062817381072E000C880B990B0E942B050E
:1011C0008EE391E00E94DA04F70160817181072EBD
:1011D000000C880B990B0E942B058CE491E00E9477
:1011E000DA04F501918280820C5F1F4FF2E0AF0EAE
:1011F000B11C22E0E20EF11C85E0C81681E0D806A1
:1012000009F0A5CF33243A946EE1262E30E0832EE8
:1012100031E0932E44E9A42E41E0B42E08EA11E017
:1012200052EBE52E51E0F52EF80180819181F70116
:1012300020813181280F391F31832083F5014281BC
:1012400053812417350774F0F7015183408391953A
:1012500081959109F8019183808309C0F50111827C
:101260001082C2CF40815181421753076CF78FE43F
:1012700091E00E94DA04F40161914F0170E090E086
:1012800080E04AE00E94E70481E591E00E94DA04F0
:10129000F701619171917F01072E000C880B990B6A
:1012A0000E942B050E5F1F4FF4E0AF0EB11C82EBC6
:1012B00091E08017910709F0B7CF8EE491E00E948A
:1012C000DA048CE491E00E94DA0480916A02909141
:1012D0006B02892B09F470C0E0916602F0916702FD
:1012E000309709F0099539823A829EEF9B83E3E8B3
:1012F000ED83F2E0FF8323E12C832E82E0916A02EA
:10130000F0916B020084F185E02D0995E0916A026D
:10131000F0916B020484F585E02D67E070E0CE016A
:101320000196099502EB11E090E0E92E91E0F92E8B
:1013300024EBA22EF701B1907F01E0916A02F091B7
:101340006B020284F385E02D8B2D0995F8018081D5
:101350000E5F1F4FB80EE0916A02F0916B0202849B
:10136000F385E02D0995F80132978181B80EAB0C19
:10137000E0916A02F0916B020284F385E02D0995F9
:10138000CE14DF04B9F6E0916A02F0916B02028498
:10139000F385E02D8A2D80950995E0916A02F09100
:1013A0006B020088F189E02D0995E0916802F091C7
:1013B0006902309709F009950E947E014B015C019A
:1013C0008AE0482E512C612C712C0E947E016819F4
:1013D00079098A099B09683E734081059105A8F344
:1013E000F1E04F1A51086108710828EE820E23E0DF
:1013F000921EA11CB11C411451046104710429F70F
:1014000080E090E0892B09F401CF0E940D0288232F
:1014100009F4FACE0E940000F7CEE0916A02F09142
:101420006B02309721F00280F381E02D09958BE16A
:1014300091E0909387028093860286E892E00C9474
:101440005C03A1E21A2EAA1BBB1BFD010DC0AA1F43
:10145000BB1FEE1FFF1FA217B307E407F50720F01D
:10146000A21BB30BE40BF50B661F771F881F991F98
:101470001A9469F760957095809590959B01AC01E1
:10148000BD01CF010895052E97FB1EF400940E9424
:101490005A0A57FD07D00E94210A07FC03D04EF4D8
:1014A0000C945A0A50954095309521953F4F4F4FD7
:1014B0005F4F089590958095709561957F4F8F4F00
:1014C0009F4F0895EE0FFF1F0590F491E02D0994B2
:1014D00010E0C2E6D0E004C0FE010E94620A21963C
:0A14E000C336D107C9F7F894FFCF17
:1014EA000102030405000000004302A301D0019099
:1014FA00020102DF01F30100000000C902A3014654
:10150A0004C80225033B03B0023A206D61782070BB
:10151A006F733D00206D696E20706F733D002070FF
:10152A00726573656E7320706F733D000D0A00203B
:04153A00003A000073
:00000001FF
