:020000040000FA
:100000000C9436000C945E000C945E000C941B055E
:100010000C941B050C941B050C945E000C945E0064
:100020000C945E000C945E000C945E000C945E00D8
:100030000C945E000C945E000C945E000C945E00C8
:100040000C9479040C945E000C94E9040C94C304A1
:100050000C945E000C945E000C945E000C945E00A8
:100060000C945E000C945E0025053A0711241FBE17
:10007000CFEFD8E0DEBFCDBF22E0ACE6B1E001C0FB
:100080001D92AA33B207E1F711E0A0E0B1E0E4EF7E
:10009000FEE002C005900D92AC36B107D9F710E032
:1000A000C5E3D0E004C02197FE010E946707C43376
:1000B000D107C9F70E9485050C946D070C940000C8
:1000C000CF92DF92EF92FF926B017C01E0918D0164
:1000D000F0918E0182E08083C11481EED806E104A4
:1000E000F104A1F060E079E08DE390E0A7019601D2
:1000F0000E944507215031094109510956954795FC
:1001000037952795211580E13807A8F0E0918D01FA
:10011000F0918E01108260E874E88EE190E0A70112
:1001200096010E9445072150310941095109569510
:10013000479537952795E0918901F0918A013083A1
:10014000E0918B01F0918C01208310929501E09158
:100150009101F091920186E08083E0918F01F0910E
:100160009001808180618083E0918F01F091900106
:10017000808188608083E0918F01F091900180817F
:1001800080688083E0918F01F091900180818F7D64
:100190008083FF90EF90DF90CF9008955F926F92F1
:1001A0007F928F929F92AF92BF92CF92DF92EF9207
:1001B000FF920F931F93CF93DF9300D000D01F9235
:1001C000CDB7DEB7E0911E02F0911F02309709F41F
:1001D0005AC069014A015B017C010684F785E02D64
:1001E00065E070E0CE0101960995059709F061C0C0
:1001F00089819A81019609F05CC07B808DEF87151B
:1002000008F457C06C80E1E0E61508F052C0F40134
:1002100070825D80F80150828EEF882E860C912CC2
:10022000A814B90408F445C0E0911E02F0911F0221
:100230000684F785E02DB401C70109958816990653
:10024000C1F5172D160D150DF60191828082F7016B
:10025000CF018E199F09881599051CF48191180FFB
:10026000F7CFE0911E02F0911F020684F785E02D82
:1002700061E070E0CE01019609950197D1F41095E7
:1002800081E09981191380E00F900F900F900F90EB
:100290000F90DF91CF911F910F91FF90EF90DF9022
:1002A000CF90BF90AF909F908F907F906F905F9016
:1002B0000895F60111821082E6CFCF92DF92EF927D
:1002C000FF920F931F93CF93DF93CDB7DEB729979C
:1002D0000FB6F894DEBF0FBECDBF182F6B017A01A9
:1002E000E0911A02F0911B02309709F009951E83E4
:1002F000EF821986E0911E02F0911F02309711F4EF
:1003000010E06AC018868FEF89838A8381E08B832F
:1003100084E08C8382E08D830084F185E02D099553
:1003200088859B81890F9C81890F9D81890F888792
:10033000E0911E02F0911F020484F585E02D65E036
:1003400070E0CE010196099588859E81890F9F8175
:10035000890F8887E0911E02F0911F020484F585C1
:10036000E02D62E070E0CE010696099588858095C3
:100370008887E0911E02F0911F020484F585E02D2C
:1003800061E070E0CE0108960995E0911E02F091BF
:100390001F020088F189E02D09958E01075F1F4F2C
:1003A0009E012F5F3F4FAE01485F5F4FB701C6010F
:1003B0000E94CE00182F882379F089819A81E8164F
:1003C000F90609F09DCF8885813009F099CF89859C
:1003D0008A7511E009F094CFE0911C02F0911D02A2
:1003E000309709F00995812F29960FB6F894DEBF52
:1003F0000FBECDBFDF91CF911F910F91FF90EF9076
:10040000DF90CF9008953FB7F89480917901909153
:100410007A01A0917B01B0917C0126B5A89B05C013
:100420002F3F19F00196A11DB11D3FBFBA2FA92F73
:10043000982F8827BC01CD01620F711D811D911D70
:1004400042E0660F771F881F991F4A95D1F70895DC
:10045000AF92BF92CF92DF92EF92FF920F931F93D2
:10046000CF93DF936C017B018B01040F151FEB0110
:100470005E01AE18BF08C017D10759F06991D601C7
:10048000ED91FC910190F081E02DC6010995892B39
:1004900079F7C501DF91CF911F910F91FF90EF90F8
:1004A000DF90CF90BF90AF900895FC01538D448DA5
:1004B000252F30E0842F90E0821B930B541710F00F
:1004C000CF96089501970895FC01918D828D98171C
:1004D00061F0A28DAE0FBF2FB11D5D968C91928DF4
:1004E0009F5F9F73928F90E008958FEF9FEF089525
:1004F000FC01918D828D981731F0828DE80FF11DEE
:10050000858D90E008958FEF9FEF0895FC01918D08
:10051000228D892F90E0805C9F4F821B91098F7301
:10052000992708958DE791E00E94860221E0892BAA
:1005300009F420E0822F089580E090E0892B29F0D3
:100540000E94920281110C9400000895FC01A48D78
:10055000A80FB92FB11DA35ABF4F2C91848D90E0E5
:1005600001968F739927848FA689B7892C93A089C8
:10057000B1898C91837080648C93938D848D981352
:1005800006C00288F389E02D80818F7D80830895E5
:10059000EF92FF920F931F93CF93DF93EC0181E0D3
:1005A000888F9B8D8C8D98131AC0E889F98980817A
:1005B00085FF15C09FB7F894EE89FF896083E889AD
:1005C000F98980818370806480839FBF81E090E09F
:1005D000DF91CF911F910F91FF90EF900895F62E2C
:1005E0000B8D10E00F5F1F4F0F731127E02E8C8DC6
:1005F0008E110CC00FB607FCFACFE889F98980810B
:1006000085FFF5CFCE010E94A602F1CFEB8DEC0F56
:10061000FD2FF11DE35AFF4FF0829FB7F8940B8F27
:10062000EA89FB8980818062CFCFCF93DF93EC0191
:10063000888D8823B9F0AA89BB89E889F9898C91CA
:1006400085FD03C0808186FD0DC00FB607FCF7CF86
:100650008C9185FFF2CF808185FFEDCFCE010E9486
:10066000A602E9CFDF91CF9108958DE791E00C9438
:100670001503EF92FF920F931F93CF93DF93EB013C
:10068000209709F441C07C0110E000E02FB7F894F6
:100690008091750190917601A0917701B0917801D8
:1006A0002FBF8093850190938601A0938701B0931B
:1006B00088018DE791E00E94640297FF2DC02FB75B
:1006C000F8948091750190917601A0917701B09195
:1006D00078012FBF4091850150918601609187017B
:1006E00070918801841B950BA60BB70B409181017B
:1006F0005091820160918301709184018417950764
:10070000A607B707B0F2E801CE01DF91CF911F91A4
:100710000F91FF90EF900895F70181937F010F5F94
:100720001F4F0C171D0708F4B1CFEDCFAB01BC0173
:100730008DE791E00C942802682F8DE791E00C94EE
:10074000C8028DE791E00E948602892B29F08DE78F
:1007500091E00E946402F5CF089560938101709347
:10076000820180938301909384010895CF92DF9258
:10077000EF92FF926B017C010E946000C701B601FD
:10078000FF90EF90DF90CF9008958DE791E00E9469
:100790001503EDE7F1E0A289B3898C918F7E8C93EC
:1007A000A289B3898C91877F8C93A289B3898C911C
:1007B0008F778C93A289B3898C918F7D8C93828D56
:1007C000818F0895CF92DF92EF92FF926B017C01AF
:1007D0000E946000C701B601FF90EF90DF90CF90BC
:1007E0000895FC0101900020E9F73197AF01481B03
:1007F000590BBC018DE791E00C9428028F929F92D7
:10080000AF92BF92CF92DF92EF92FF920F931F931E
:10081000CF93DF93CDB7DEB7A1970FB6F894DEBFC5
:100820000FBECDBF6B017C01F7FE41C06DE28DE7CD
:1008300091E00E94C8028C0122273327A9012C19BC
:100840003D094E095F0919A2CE0181967C019AE00B
:10085000892E912CA12CB12CCA01B901A5019401BA
:100860000E944507605DF70162937F012115310504
:100870004105510589F790E080E0309719F0CF01EC
:100880000E94F103800F911FA1960FB6F894DEBF6E
:100890000FBECDBFDF91CF911F910F91FF90EF90D1
:1008A000DF90CF90BF90AF909F908F900895AC0154
:1008B0009B0119A28E010F5D1F4F8AE0C82ED12C1B
:1008C000E12CF12CCA01B901A70196010E9445074C
:1008D000605DF80162938F012115310541055105D5
:1008E00089F790E080E0309779F2CF010E94F10320
:1008F000CBCF1F920F920FB60F9211242F933F93DD
:100900008F939F93AF93BF938091750190917601E0
:10091000A0917701B09178013091740123E0230F09
:100920002D3758F50196A11DB11D209374018093B8
:10093000750190937601A0937701B093780180912F
:10094000790190917A01A0917B01B0917C0101968F
:10095000A11DB11D8093790190937A01A0937B0131
:10096000B0937C01BF91AF919F918F913F912F9157
:100970000F900FBE0F901F90189526E8230F029638
:10098000A11DB11DD2CF1F920F920FB60F9211244D
:100990002F933F934F935F936F937F938F939F9387
:1009A000AF93BF93EF93FF938DE791E00E94A60270
:1009B000FF91EF91BF91AF919F918F917F916F9137
:1009C0005F914F913F912F910F900FBE0F901F900D
:1009D00018951F920F920FB60F9211242F938F9399
:1009E0009F93EF93FF93E0918D01F0918E018081B1
:1009F000E0919301F091940182FD1BC09081809160
:100A000096018F5F8F7320919701821741F0E091DB
:100A10009601F0E0E358FE4F958F80939601FF9189
:100A2000EF919F918F912F910F900FBE0F901F907C
:100A300018958081F4CF1F920F920FB60F92112458
:100A40000F900FBE0F901F901895EDE7F1E0138205
:100A5000128288EE93E0A0E0B0E084839583A683C1
:100A6000B78386E091E09183808385EC90E0958761
:100A7000848784EC90E09787868780EC90E0918B68
:100A8000808B81EC90E0938B828B82EC90E0958B55
:100A9000848B86EC90E0978B868B118E128E138E52
:100AA000148EE8E2F2E082EE93E09183808385EC9D
:100AB00093E09383828386EB93E0958384838DEA2E
:100AC00093E09783868381EA93E0918780878CE91E
:100AD00093E09387828786E993E09587848789E30B
:100AE00093E09787868785E393E0918B808BAAE1DB
:100AF000B2E011961C921E9213961C921E921297AF
:100B00001596FC93EE9314970895CF93DF93CDB78A
:100B1000DEB72D970FB6F894DEBF0FBECDBF789429
:100B200084B5826084BD84B5816084BD85B58260F2
:100B300085BD85B5816085BD80916E0081608093A3
:100B40006E0010928100809181008260809381000C
:100B5000809181008160809381008091800081601C
:100B6000809380008091B10084608093B100809177
:100B7000B00081608093B00080917A00846080939F
:100B80007A0080917A00826080937A0080917A0066
:100B9000816080937A0080917A00806880937A00E7
:100BA0001092C10060E072EC81E090E00E94600071
:100BB00087E39FEDA0E0B0E08093200290932102B4
:100BC000A0932202B0932302E0911E02F0911F0233
:100BD0000190F081E02D67E37FED80E090E00995E2
:100BE000E0911E02F0911F020680F781E02D62E382
:100BF00070E080E090E009956093240270932502F4
:100C0000809326029093270244E050E06EE671E064
:100C100086E090E00E945D01882309F4F1C042E083
:100C200050E062E771E084E290E00E945D01882379
:100C300009F4E1C084E191E00E94F10360916E014A
:100C400070916F01072E000C880B990B0E94FE0318
:100C50008DE191E00E94F10360917001709171014A
:100C6000072E000C880B990B0E94FE0387E291E08F
:100C70000E94F1036091720170917301072E000CC4
:100C8000880B990B0E94FE0385E391E00E94F1031B
:100C9000DD24DA9493E0C92E3324339425E0222E08
:100CA00030E0E32E30E0F32E8091720190917301D9
:100CB0009A878987E0911A02F0911B02309709F018
:100CC0000995D982DA82CD823B822C822EE12E8355
:100CD0001D861B86E0911E02F0911F020084F185A3
:100CE000E02D09958B819D85890F9C81890F9D81C0
:100CF000890F9E81890F99852A85920F890F80958A
:100D00008D87E0911E02F0911F020484F585E02D8D
:100D100066E070E0CE0101960995E0911E02F09127
:100D20001F020484F585E02D62E070E0CE01099693
:100D30000995E0911E02F0911F020484F585E02DD3
:100D400061E070E0CE010D9609958E01055F1F4FA1
:100D50009E01295F3F4FAE01445F5F4F66E070E048
:100D6000CE0101960E94CE00182F882361F08C8559
:100D7000813041F48F819885892B21F48B858A7588
:100D800011E009F010E0E0911C02F0911D02309793
:100D900009F00995112371F060917201709173014E
:100DA000072E000C880B990B0E94FE0387E691E04A
:100DB0000E94F10380910001909101012091720144
:100DC00030917301280F391F309373012093720102
:100DD000409170015091710124173507A4F0509390
:100DE000730140937201919581959109909301014E
:100DF000809300010FC088E391E00E94F10344CF8B
:100E00008FE491E0FACF40916E0150916F0142174B
:100E100053072CF70E9403024B015C018AE0482E25
:100E2000512C612C712C0E940302681979098A09DE
:100E30009B09683E734081059105A8F381E0481A3B
:100E400051086108710828EE820E23E0921EA11C51
:100E5000B11C411451046104710429F7E114F10437
:100E600009F422CF0E949202882309F41DCF0E9428
:100E700000001ACFE0911E02F0911F02309721F07E
:100E80000280F381E02D09940895A1E21A2EAA1B95
:100E9000BB1BFD010DC0AA1FBB1FEE1FFF1FA2172A
:100EA000B307E407F50720F0A21BB30BE40BF50B27
:100EB000661F771F881F991F1A9469F760957095B0
:100EC000809590959B01AC01BD01CF010895EE0F77
:100ED000FF1F0590F491E02D099410E0C5E3D0E0E8
:100EE00004C0FE010E9467072196C633D107C9F7E7
:100EF000F894FFCF0A0000000000C8022802550243
:100F000015038602640278026D617820706F733D6C
:100F100000206D696E20706F733D002070726573E4
:100F2000656E7320706F733D000D0A004661696C39
:100F3000656420746F2052656164576F7264446108
:100F40007461004661696C656420746F205265614C
:100F500064426C6F636B44617461002020200D005B
:107E0000112484B714BE81FFF0D085E080938100F7
:107E100082E08093C00088E18093C10086E0809377
:107E2000C20080E18093C4008EE0C9D0259A86E02C
:107E300020E33CEF91E0309385002093840096BBD3
:107E4000B09BFECF1D9AA8958150A9F7CC24DD24C4
:107E500088248394B5E0AB2EA1E19A2EF3E0BF2EE7
:107E6000A2D0813461F49FD0082FAFD0023811F036
:107E7000013811F484E001C083E08DD089C08234E0
:107E800011F484E103C0853419F485E0A6D080C0E4
:107E9000853579F488D0E82EFF2485D0082F10E0AE
:107EA000102F00270E291F29000F111F8ED06801E7
:107EB0006FC0863521F484E090D080E0DECF843638
:107EC00009F040C070D06FD0082F6DD080E0C81688
:107ED00080E7D80618F4F601B7BEE895C0E0D1E017
:107EE00062D089930C17E1F7F0E0CF16F0E7DF06D8
:107EF00018F0F601B7BEE89568D007B600FCFDCFD4
:107F0000A601A0E0B1E02C9130E011968C91119780
:107F100090E0982F8827822B932B1296FA010C0160
:107F200087BEE89511244E5F5F4FF1E0A038BF0790
:107F300051F7F601A7BEE89507B600FCFDCF97BE46
:107F4000E89526C08437B1F42ED02DD0F82E2BD052
:107F50003CD0F601EF2C8F010F5F1F4F84911BD097
:107F6000EA94F801C1F70894C11CD11CFA94CF0C13
:107F7000D11C0EC0853739F428D08EE10CD085E9AC
:107F80000AD08FE07ACF813511F488E018D01DD067
:107F900080E101D065CF982F8091C00085FFFCCF94
:107FA0009093C60008958091C00087FFFCCF809118
:107FB000C00084FD01C0A8958091C6000895E0E648
:107FC000F0E098E1908380830895EDDF803219F02E
:107FD00088E0F5DFFFCF84E1DECF1F93182FE3DFCA
:107FE0001150E9F7F2DF1F91089580E0E8DFEE27F6
:047FF000FF270994CA
:027FFE00040479
:00000001FF
