:100000000C9463000C948B000C948B000C941A05D8
:100010000C941A050C941A050C948B000C948B000C
:100020000C948B000C948B000C948B000C948B0024
:100030000C948B000C948B000C948B000C948B0014
:100040000C9478040C948B000C94E8040C94C20477
:100050000C948B000C948B000C948B000C948B00F4
:100060000C948B000C948B0000000008000201002F
:100070000003040700000000000000000000000072
:1000800023002600290000000000240027002A0089
:1000900000000000250028002B00040404040404D0
:1000A0000404020202020202030303030303010227
:1000B00004081020408001020408102001020408F6
:1000C0001020DE05F60811241FBECFEFD8E0DEBFFA
:1000D000CDBF22E0A8E2B1E001C01D92A135B20778
:1000E000E1F711E0A0E0B1E0ECEBF2E102C0059035
:1000F0000D92A832B107D9F710E0C2E6D0E004C0F3
:100100002197FE010E944B09C136D107C9F70E9411
:100110000B070C9451090C9400005F926F927F9230
:100120008F929F92AF92BF92CF92DF92EF92FF9207
:100130000F931F93CF93DF9300D000D01F92CDB7C2
:10014000DEB7E0911602F0911702309709F45AC019
:1001500069014A015B017C010684F785E02D65E0B9
:1001600070E0CE0101960995059709F061C089817B
:100170009A81019609F05CC07B808DEF871508F4A9
:1001800057C06C80E1E0E61508F052C0F4017082BF
:100190005D80F80150828EEF882E860C912CA81479
:1001A000B90408F445C0E0911602F09117020684E4
:1001B000F785E02DB401C701099588169906C1F5A8
:1001C000172D160D150DF60191828082F701CF01D2
:1001D0008E199F09881599051CF48191180FF7CF86
:1001E000E0911602F09117020684F785E02D61E098
:1001F00070E0CE01019609950197D1F4109581E048
:100200009981191380E00F900F900F900F900F902D
:10021000DF91CF911F910F91FF90EF90DF90CF90E2
:10022000BF90AF909F908F907F906F905F90089558
:10023000F60111821082E6CF3FB7F89480916D01EC
:1002400090916E01A0916F01B091700126B5A89BAD
:1002500005C02F3F19F00196A11DB11D3FBFBA2F58
:10026000A92F982F8827BC01CD01620F711D811D18
:10027000911D42E0660F771F881F991F4A95D1F79D
:100280000895AF92BF92CF92DF92EF92FF920F93B9
:100290001F93CF93DF936C017B018B01040F151F1C
:1002A000EB015E01AE18BF08C017D10759F0699184
:1002B000D601ED91FC910190F081E02DC6010995E8
:1002C000892B79F7C501DF91CF911F910F91FF9095
:1002D000EF90DF90CF90BF90AF900895FC01538DC9
:1002E000448D252F30E0842F90E0821B930B541710
:1002F00010F0CF96089501970895FC01918D828D9D
:10030000981761F0A28DAE0FBF2FB11D5D968C9135
:10031000928D9F5F9F73928F90E008958FEF9FEF74
:100320000895FC01918D828D981731F0828DE80F30
:10033000F11D858D90E008958FEF9FEF0895FC01EA
:10034000918D228D892F90E0805C9F4F821B9109B7
:100350008F739927089585E791E00E949F0121E01E
:10036000892B09F420E0822F089580E090E0892B0A
:1003700029F00E94AB0181110C9400000895FC014A
:10038000A48DA80FB92FB11DA35ABF4F2C91848DF6
:1003900090E001968F739927848FA689B7892C9353
:1003A000A089B1898C91837080648C93938D848DA6
:1003B000981306C00288F389E02D80818F7D8083A9
:1003C0000895EF92FF920F931F93CF93DF93EC0169
:1003D00081E0888F9B8D8C8D98131AC0E889F989EC
:1003E000808185FF15C09FB7F894EE89FF896083EF
:1003F000E889F98980818370806480839FBF81E070
:1004000090E0DF91CF911F910F91FF90EF900895B1
:10041000F62E0B8D10E00F5F1F4F0F731127E02E8C
:100420008C8D8E110CC00FB607FCFACFE889F989C4
:10043000808185FFF5CFCE010E94BF01F1CFEB8D0A
:10044000EC0FFD2FF11DE35AFF4FF0829FB7F89498
:100450000B8FEA89FB8980818062CFCFCF93DF93B6
:10046000EC01888D8823B9F0AA89BB89E889F989CC
:100470008C9185FD03C0808186FD0DC00FB607FC01
:10048000F7CF8C9185FFF2CF808185FFEDCFCE0134
:100490000E94BF01E9CFDF91CF91089520917301B0
:1004A000309174012817390771F49091710180918E
:1004B0007201981741F0E0917101F0E0E85DFE4FA4
:1004C000808190E008958FEF9FEF08950895EF9257
:1004D000FF920F931F93CF93DF93DC015C96ED9017
:1004E000FC905D97E114F10479F481E090E01396BB
:1004F0009C938E93129790E080E0DF91CF911F91B3
:100500000F91FF90EF9008955196ED91FC915297C5
:1005100050968C915097982F90950FB75E962C918E
:100520005E97122F127021FD6095F894208111239F
:1005300019F1282B2083E7012197F1F728E0462FB6
:1005400050E0308160FF1AC0382B3083E7012197DB
:10055000F1F7BA0175956795215089F7112381F05C
:100560008081892380830FBF5C968D919C91019738
:10057000F1F781E090E0C1CF2923DCCF3923E5CF2B
:100580009081892BEFCF209173013091740128174E
:10059000390761F4809172012091710190E0805CD3
:1005A0009F4F821B91098F739927089590E080E0F7
:1005B0000895209173013091740128173907B9F417
:1005C0009091710180917201981789F0E091710109
:1005D000F0E0E85DFE4F80812091710130E02F5FF7
:1005E0003F4F2F7333272093710190E008958FEFD1
:1005F0009FEF0895E0917301F0917401E817F907F6
:1006000069F4A389B4899C918589809589238C9309
:10061000109274011092730181E0089580E00895B2
:100620009B01AC0110924D0210924C0210924B02B1
:1006300010924A02109249021092480260E079E05A
:100640008DE390E00E942C09B901C9010397243081
:10065000310510F481E090E090934F0280934E02B8
:1006600090913E02963108F05FC0F901F695E7954A
:10067000E431F10508F483C07397F0934902E093E5
:1006800048026630710508F47DC0B90165507109F2
:1006900070934B0260934A02B901660F771F260FD1
:1006A000371F36952795369527952D30310508F457
:1006B0006CC02C50310930934D0220934C02209194
:1006C000680084E0983048F031E09E3008F430E073
:1006D00081E001C0880F3A95EAF7822B8093680089
:1006E0002DE630E0983050F02BE630E09E3030F0D0
:1006F0002CE630E0963110F030E020E030934602F6
:1007000020934502292F30E0983008F041C081E065
:1007100001C0880F9A95EAF78093470280914E02B4
:1007200090914F020197F1F780914C0290914D0208
:10073000892B21F1809173019091740122E0823321
:100740009207E1F0009711F00E94FA0280915002A6
:100750008E7F80935002109272011092710182E399
:1007600092E09093740180937301E0914502F091BF
:100770004602808190914702892B80830895E1E0B1
:10078000F0E07BCF61E070E083CF21E030E093CFF9
:100790009E3040F42850310981E001C0880F2A952D
:1007A000EAF7BACF2E503109F7CFCF92DF92EF920E
:1007B000FF926B017C010E941003C701B601FF90FC
:1007C000EF90DF90CF90089590E080E00895089535
:1007D000EF92FF920F931F93CF93DF93EB0120973C
:1007E00009F441C07C0110E000E02FB7F89480913B
:1007F000690190916A01A0916B01B0916C012FBFCA
:1008000080933A0290933B02A0933C02B0933D0246
:1008100082E392E00E94D90297FF2DC02FB7F8948F
:100820008091690190916A01A0916B01B0916C0176
:100830002FBF40913A0250913B0260913C0270916F
:100840003D02841B950BA60BB70B409136025091CD
:100850003702609138027091390284179507A60714
:10086000B707B0F2E801CE01DF91CF911F910F9150
:10087000FF90EF900895F70181937F010F5F1F4F65
:100880000C171D0708F4B1CFEDCFAB01BC0182E31B
:1008900092E00C944101682F82E392E00C9467028D
:1008A00082E392E00E94C302892B29F082E392E066
:1008B0000E94D902F5CF08956093360270933702F3
:1008C00080933802909339020895CF92DF92EF928D
:1008D000FF926B017C010E941003C701B601FF90DB
:1008E000EF90DF90CF90089582E392E00C94FA02AB
:1008F0001F920F920FB60F9211242F933F938F9355
:100900009F93AF93BF938091690190916A01A091E9
:100910006B01B0916C013091680123E0230F2D37FA
:1009200058F50196A11DB11D2093680180936901BE
:1009300090936A01A0936B01B0936C0180916D015B
:1009400090916E01A0916F01B09170010196A11D6F
:10095000B11D80936D0190936E01A0936F01B093D0
:100960007001BF91AF919F918F913F912F910F9007
:100970000FBE0F901F90189526E8230F0296A11D19
:10098000B11DD2CF1F920F920FB60F9211242F9349
:100990003F934F935F936F937F938F939F93AF9307
:1009A000BF93EF93FF9385E791E00E94BF01FF9112
:1009B000EF91BF91AF919F918F917F916F915F91D7
:1009C0004F913F912F910F900FBE0F901F90189550
:1009D0001F920F920FB60F9211242F938F939F9314
:1009E000EF93FF93E0918501F09186018081E09182
:1009F0008B01F0918C0182FD1BC0908180918E0152
:100A00008F5F8F7320918F01821741F0E0918E01EB
:100A1000F0E0EB58FE4F958F80938E01FF91EF91A0
:100A20009F918F912F910F900FBE0F901F9018954F
:100A30008081F4CF1F920F920FB60F9211242F9343
:100A40003F934F935F936F937F938F939F93AF9356
:100A5000BF93EF93FF93E0917301F091740130978E
:100A600049F0A685B7858585968D91FF14C09C9128
:100A70008923A1F4FF91EF91BF91AF919F918F9145
:100A80007F916F915F914F913F912F910F900FBE8A
:100A90000F901F9018959C91892361F7A389B489C1
:100AA0009C918589809589238C9386899789019764
:100AB000F1F7608D718DA685B785558538E020E00A
:100AC000CB010197F1F7822F90E095958795282F1C
:100AD0004C91452309F02068315091F7868D81FDB6
:100AE00020958091720190E001968F739927309143
:100AF0007101381799F0A0917201B0E0A85DBE4F66
:100B00002C9380937201828D938D0197F1F7A389C5
:100B1000B4898C919589892B8C93ACCF868D81601B
:100B2000868FF1CF90E0FC01E859FF4F2491FC0142
:100B3000E255FF4F3491FC01E656FF4FE491EE235E
:100B4000C9F0222339F0233001F1A8F4213019F142
:100B5000223029F1F0E0EE0FFF1FE057FF4FA59183
:100B6000B4918FB7F894EC91611126C030953E2373
:100B70003C938FBF08952730A9F02830C9F0243066
:100B800049F7809180008F7D03C0809180008F772E
:100B900080938000DFCF84B58F7784BDDBCF84B5B1
:100BA0008F7DFBCF8091B0008F778093B000D2CF44
:100BB0008091B0008F7DF9CF3E2BDACF0F931F933A
:100BC000CF93DF93109278011092770188EE93E033
:100BD000A0E0B0E08093790190937A01A0937B012B
:100BE000B0937C0124E031E03093760120937501CD
:100BF00025EC30E0309382012093810124EC30E039
:100C0000309384012093830120EC30E030938601FF
:100C10002093850121EC30E03093880120938701F7
:100C200022EC30E030938A012093890126EC30E0F9
:100C300030938C0120938B0110928E0110928F01C2
:100C4000109290011092910110923502109234028C
:100C50008093360290933702A0933802B093390202
:100C600086E191E090933302809332021092490220
:100C70001092480210924B0210924A0210924D02BA
:100C800010924C0210924F0210924E02609150024C
:100C90006E7F6D7F609350026695617081E068277A
:100CA00089E00E94920547EB50E0FA01649183EAE3
:100CB00090E0FC012491222399F030E0220F331FB1
:100CC000F901EA57FF4FA591B491F901E057FF4FA1
:100CD000259134912FB7F8943C91632B6C932FBFDF
:100CE000FA01449140934202FC018491E82FF0E024
:100CF000EE0FFF1FE057FF4F8591949190934402B0
:100D00008093430206EB10E0F8012491C2EAD0E0A0
:100D1000FE0184918823C9F090E0880F991FFC019F
:100D2000EA57FF4FA591B491FC01E057FF4F459161
:100D300054913FB7F8949C91822F809598239C936F
:100D4000FA019081892380833FBF8091500281FD09
:100D500004C061E088E00E94920588E080933E0232
:100D6000F801049100933F02FE01C491EC2FF0E0E2
:100D7000EE0FFF1FE458FF4F85919491909341022D
:100D80008093400285ED93E09093210280932002AE
:100D900084E794E0909323028093220285E694E016
:100DA00090932502809324028CE594E0909327028F
:100DB0008093260280E594E0909329028093280294
:100DC0008BE494E090932B0280932A0285E494E0D4
:100DD00090932D0280932C0288EE93E090932F0243
:100DE00080932E0287EE93E090933102809330023D
:100DF0001092130210921202109215021092140215
:100E000080E292E09093170280931602DF91CF91D7
:100E10001F910F910895CF93DF93CDB7DEB7A897B9
:100E20000FB6F894DEBF0FBECDBF789484B5826054
:100E300084BD84B5816084BD85B5826085BD85B57E
:100E4000816085BD80916E00816080936E001092FC
:100E50008100809181008260809381008091810077
:100E60008160809381008091800081608093800008
:100E70008091B10084608093B1008091B000816066
:100E80008093B00080917A00846080937A00809192
:100E90007A00826080937A0080917A0081608093EA
:100EA0007A0080917A00806880937A001092C10065
:100EB000E0918501F091860182E08083E0918101DB
:100EC000F09182011082E0918301F091840180E130
:100ED000808310928D01E0918901F0918A0186E072
:100EE0008083E0918701F091880180818061808317
:100EF000E0918701F0918801808188608083E09192
:100F00008701F0918801808180688083E09187016A
:100F1000F091880180818F7D808387E39FEDA0E041
:100F2000B0E08093180290931902A0931A02B09334
:100F30001B02E0911602F09117020190F081E02D62
:100F400067E37FED80E090E00995E0911602F09173
:100F500017020680F781E02D62E370E080E090E008
:100F6000099560931C0270931D0280931E0290935A
:100F70001F0218A6E0911202F0911302309709F0B7
:100F800009958FEF89838A8383E08D8381E08B834A
:100F900084E08C8388E18E831FA21CA2E09116025C
:100FA000F09117020084F185E02D09958B819FA1B6
:100FB000890F9C81890F9D81890F9E81890F98A53A
:100FC000890F80958FA3E0911602F0911702048497
:100FD000F585E02D66E070E0CE0101960995E0917F
:100FE0001602F09117020484F585E02D61E070E0AF
:100FF000CE0188960995E0911602F09117020484BB
:10100000F585E02D61E070E0CE01879609958E01AF
:101010000C5D1F4F9E012E5D3F4FAE014A5D5F4F3D
:1010200066E070E0CE0101960E948D00E09114020E
:10103000F0911502309709F009959AE0492E512C4C
:10104000612C712C2224239424E0322EE091120290
:10105000F0911302309709F0099524E22AA382E067
:101060008BA31EA2E0911602F0911702309709F4AB
:1010700057C01CA29FEF99839A832B823C828D8359
:101080000084F185E02D09958CA19B81890F9C81BD
:10109000890F9D81890F8CA3E0911602F0911702B0
:1010A0000484F585E02D65E070E0CE010196099598
:1010B0008AA19CA1890F9BA1890F8CA3E0911602A4
:1010C000F09117020484F585E02D62E070E0CE0116
:1010D000829609958CA180958CA3E0911602F091DF
:1010E00017020484F585E02D61E070E0CE0184965E
:1010F0000995E0911602F09117020088F189E02D20
:1011000009958E010A5D1F4F9E012F5F3F4FAE0173
:10111000495D5F4F62E070E0CE0184960E948D00D1
:10112000E0911402F0911502309709F009952CA175
:101130003DA150E040E019A27E01E1E2EE0EF11C7B
:10114000CA01B901A30192010E940A09605DF70179
:1011500062937F01211531054105510589F73097CB
:1011600061F001900020E9F73197AF014E195F0956
:10117000B70185E791E00E94410142E050E064E25E
:1011800071E085E791E00E9441010E941C014B0142
:101190005C0184E6C82ED12CE12CF12C0E941C01AC
:1011A000681979098A099B09683E73408105910590
:1011B000A8F3F1E0CF1AD108E108F10828EE820E79
:1011C00023E0921EA11CB11CC114D104E104F1045E
:1011D00029F780E090E0892B09F438CF0E94AB0119
:1011E000882309F433CF0E94000030CFE09116022B
:1011F000F0911702309721F00280F381E02D0995DC
:1012000086E191E0909333028093320282E392E090
:101210000C94FA02A1E21A2EAA1BBB1BFD010DC001
:10122000AA1FBB1FEE1FFF1FA217B307E407F50796
:1012300020F0A21BB30BE40BF50B661F771F881F72
:10124000991F1A9469F760957095809590959B0108
:10125000AC01BD01CF010895052E97FB1EF400944B
:101260000E94430957FD07D00E940A0907FC03D0DA
:101270004EF40C94430950954095309521953F4F7D
:101280004F4F5F4F089590958095709561957F4F72
:101290008F4F9F4F0895EE0FFF1F0590F491E02DA3
:1012A000099410E0C2E6D0E004C0FE010E944B09A0
:0C12B0002196C336D107C9F7F894FFCF90
:1012BC0000000000E10141016E012E029F017D0141
:1012CC0091010000000067024101E4036602C302C1
:0812DC00D9024E020D0A0000C8
:00000001FF
